:10100000FEEF3DF00001000A006400E80310272510
:041010006400000078
:107BFC0000EE1BF0070EEE6AE806FDE1000EF86ED3
:107C0C000001D5EF3EF083887D0E016EAC0EE82EA0
:107C1C00FED7012EFCD783987D0E016EAC0EE82E9C
:107C2C00FED7012EFCD712000A500B10D8B418D076
:107C3C00010E0C6E04D0D8900A360B360C2A0BAE03
:107C4C00FAD70A50085C0B500958D8A004D00A5037
:107C5C00085E0B50095AD8900B320A320C2EF1D711
:107C6C0008C008F009C009F01200000E066E000EE4
:107C7C00056E03500410D8B41CD0010E076E04D04E
:107C8C00D89003360436072A04AEFAD7D8900536B6
:107C9C0006360350015C04500258D8A005D003509E
:107CAC00015E0450025A0580D89004320332072E2C
:107CBC00EDD705C001F006C002F01200036E839CE4
:107CCC003F0E026E550EE82EFED7022EFCD700F0AA
:107CDC0003C004F004380F0B046E04500F0B836EBA
:107CEC007D0E026EAC0EE82EFED7022EFCD709ECF0
:107CFC003EF07D0E026EAC0EE82EFED7022EFCD7A7
:107D0C0003C004F004500F0B836E7D0E026EAC0E9C
:107D1C00E82EFED7022EFCD709EC3EF07D0E026E4B
:107D2C00AC0EE82EFED7022EFCD71200000E956E7C
:107D3C00000E836E8398839C839A000E076E000E50
:107D4C00066E07BE06D007500FE1640E065CD8B075
:107D5C000BD09C0E056ED70EE82EFED7052EFCD749
:107D6C0000F0064A072AEDD7330E64EC3EF0320ED3
:107D7C0064EC3EF0280E64EC3EF00E0E64EC3EF02B
:107D8C00060E64EC3EF0010E64EC3EF09C0E056EAB
:107D9C00D70EE82EFED7052EFCD700F012009CEC77
:107DAC003EF09268000E936E9468000E956E010E74
:107DBC00C26E0E0EC16E3D0EC06EC2820ED01F0E74
:107DCC000D6E000E0E6E0F0E0F6E100E106EC4CFD9
:107DDC0011F0126A5CEC3FF0C292C2B2F0D7800E86
:107DEC0064EC3EF0000E1C6E000E1B6E1CBE06D02A
:107DFC001C50DDE1030E1B5CD8B0D9D71F0E1B2421
:107E0C00D96E000E1C20DA6EDF501D6E1D5012EC68
:107E1C003FF01B4A1C2AEAD7036E838C3F0E026E7E
:107E2C00550EE82EFED7022EFCD700F003C004F04E
:107E3C0004380F0B046E04500F0B836E7D0E026E14
:107E4C00AC0EE82EFED7022EFCD7838C7D0E026E74
:107E5C00AC0EE82EFED7022EFCD709EC3EF07D0EC0
:107E6C00026EAC0EE82EFED7022EFCD703C004F037
:107E7C0004500F0B836E7D0E026EAC0EE82EFED7F7
:107E8C00022EFCD7838C9C0E026ED70EE82EFED7EA
:107E9C00022EFCD700F009EC3EF09C0E026ED70EC1
:107EAC00E82EFED7022EFCD700F01200110E146E35
:107EBC00000E156E8CD0250E1A18D8B409D00DC032
:107ECC00D9FF0EC0DAFF1AC0DFFF0D4A0E2A7FD091
:107EDC00000E166E0FC0F6FF10C0F7FF0F4A102AE7
:107EEC000800F5CF1AF01A50000AD8B47CD0640AF6
:107EFC00D8B403D00D0AD8A46AD014C0D9FF15C0C9
:107F0C00DAFFDECF18F0DDCF19F0020E1426000ECA
:107F1C00152219AE06D0030E1612186C191ED8B005
:107F2C00192A010E1A6E050E1A18D8B412D01A504E
:107F3C00020D050EF324F66E100EF420F76E0900F8
:107F4C00F550185C0900F5501958D8A002D01A2A1F
:107F5C00EAD716C013F0030E1316D8B408D00DC010
:107F6C00D9FF0EC0DAFF2D0EDF6E0D4A0E2A1AC095
:107F7C0017F029D01750020D050EF324F66E100ED3
:107F8C00F420F76E0900F5CF03F00A00F5CF04F0EA
:107F9C0018C001F019C002F03BEC3EF001C008F033
:107FAC0002C009F0000E0B6E0A0E0A6E1AEC3EF0BF
:107FBC000850300F1A6E0DC0D9FF0EC0DAFF1AC070
:107FCC00DFFF0D4A0E2A17061728D8A4D3D70FC0E7
:107FDC00F6FF10C0F7FF0F4A102A0800F5CF1AF071
:107FEC001A50D8A468D70DC0D9FF0EC0DAFF000E06
:047FFC00DF6E120022
:020000040020DA
:08000000FFFFFFFFFFFFFFFF00
:020000040030CA
:0E00000000051F1FFF8385FF0FC00FE00F409C
:00000001FF
